:1000000000100020BD110000E9110000E9110000FE
:10001000E9110000E9110000E9110000E9110000F8
:10002000E9110000E9110000E9110000E9110000E8
:10003000E9110000E9110000E9110000310400009D
:10004000310E0000E91100004D040000E91100002C
:10005000E9110000E9110000E9110000E9110000B8
:10006000E9110000E9110000E9110000E9110000A8
:10007000E9110000E9110000E9110000E911000098
:10008000E9110000E9110000E9110000E911000088
:10009000E9110000E9110000E911000010B5054C5C
:1000A000237833B9044B13B10448AFF30080012324
:1000B000237010BD74000020000000002C1400000C
:1000C00008B5064B1BB106480649AFF30080064849
:1000D000036813B1054B03B1984708BD0000000049
:1000E0002C140000780000207000002000000000A8
:1000F000154B002B08BF134B9D46A3F5803A0021FA
:100100008B460F461348144A121A01F06FF90F4B31
:10011000002B00D098470E4B002B00D098470020B2
:10012000002104000D000D48002802D00C48AFF358
:10013000008001F035F92000290000F075FA01F087
:100140001BF900BF000008000010002000000000A4
:100150000000000074000020A40000200000000047
:100160000000000080B483B000AF0346FB71084B71
:1001700097F907205209F97901F01F01012000FACF
:1001800001F143F822100C37BD465DF8047B70473F
:1001900000E100E080B483B000AF03463960FB713A
:1001A00097F90730002B0BDA0D49FB7903F00F03A9
:1001B000043B3A68D2B25201D2B20B441A7609E03B
:1001C000084997F907303A68D2B25201D2B20B44CB
:1001D00083F800230C37BD465DF8047B704700BFF1
:1001E00000ED00E000E100E080B582B000AF786093
:1001F0007B68013BB3F1807F01D301230FE00A4B01
:100200007A68013A5A604FF0FF300721FFF7C2FFCA
:10021000054B00229A60044B07221A6000231846FF
:100220000837BD4680BD00BF10E000E080B485B057
:1002300000AF786039607B6803F10473DA003B68D3
:1002400013449B00FB60FB681B6818461437BD46CF
:100250005DF8047B704700BF80B582B000AF0346F5
:100260003960FB71FB79002B0DD0FB79012B0AD093
:10027000FB79022B07D0FB79032B04D0FB79042BED
:1002800001D0FB79052BFA791346DB0013449B0060
:100290001C3303F1804303F5C04318463968FFF768
:1002A000C5FF034618460837BD4680BD80B483B0FD
:1002B00000AF03463960FB71FB79002B0DD0FB7951
:1002C000012B0AD0FB79022B07D0FB79032B04D03A
:1002D000FB79042B01D0FB79052B0948FA793B689F
:1002E000012101FA03F319461346DB0013449B0076
:1002F0000344103359600C37BD465DF8047B7047EA
:100300000060004080B483B000AF03463960FB71E9
:10031000FB79002B0DD0FB79012B0AD0FB79022B46
:1003200007D0FB79032B04D0FB79042B01D0FB7998
:10033000052B0948FA793B68012101FA03F31946B4
:100340001346DB0013449B000344103319600C3741
:10035000BD465DF8047B70470060004080B400AF8C
:10036000BD465DF8047B704780B483B000AF786011
:1003700039607B683A689A610C37BD465DF8047B4A
:10038000704700BF80B483B000AF786039607B688D
:10039000DA683B681A437B68DA600C37BD465DF863
:1003A000047B704780B483B000AF786039607B68AD
:1003B0003A68DA610C37BD465DF8047B704700BFD0
:1003C00080B483B000AF0C4B1B68002B0DD00A4BE0
:1003D0001B685A1E084B1A60074B1B687B607B68C2
:1003E000002B00D162B67B6800E0002318460C3772
:1003F000BD465DF8047B70479800002080B483B050
:1004000000AF78607B685B6A18460C37BD465DF8C4
:10041000047B704780B483B000AF78600B46FB70FC
:10042000FA787B685A600C37BD465DF8047B7047EC
:1004300080B400AF044B1B685A1C034B1A60BD46C6
:100440005DF8047B704700BF9400002080B500AFCA
:1004500011480121FFF788FF104B1B681A46104B0B
:100460001B6864339A4204D203200621FFF74AFF37
:1004700003E003200621FFF719FF084B1B685A1CF5
:10048000064B1A60054B1B68B3F5FA6F02DD034B90
:1004900000221A6080BD00BF000001409C000020C7
:1004A0009000002080B483B000AF7860064B00223B
:1004B0001A6000BF044B1A687B689A42FADB0C375B
:1004C000BD465DF8047B70479400002080B582B083
:1004D00000AF00237B6018E003200621FFF7BCFE7D
:1004E0000346002B07D003200621FFF7DFFE122072
:1004F000FFF7D8FF06E003200621FFF703FF0220E5
:10050000FFF7D0FF7B6801337B607B68C72BE3DD9F
:100510000220FFF727FE0837BD4680BD80B584B0B6
:1005200000AF0948012100F0C3FA084A3B1D1068DA
:10053000516803C3127A1A703B1D0548194600F032
:100540002BF91037BD4680BD00920400181400003E
:100550000020004080B584B000AF1D48012100F0AC
:10056000A7FA032006210422002300F025FD1948E4
:10057000012100F09DFA184800F0F8FA03465A0AE3
:10058000164BA3FB0213DB0815481946FFF70AFFB9
:100590003B4600221A60043300221A600433002212
:1005A0001A60043300221A70013301233B700123C7
:1005B0007B700423BB700A480121FFF7E3FE3B4632
:1005C0000748194600F080FD1037BD4680BD00BFCA
:1005D000006204000042040040810400ADC5A70091
:1005E0000000014080B584B000AF78600C48012164
:1005F000FFF710FF7868FFF755FF0948FFF7FEFE89
:10060000F860FB68642202FB03F2064BA3FB0213B3
:10061000D21A52081344DB0A18461037BD4680BD73
:10062000002000400101100080B500AFFFF796FEEA
:100630000E4800F09BFA02460D4BA3FB02139B09E8
:100640001846FFF7D1FD0346002B00D0FEE7FFF769
:1006500065FFFFF77FFFFFF739FFFFF7B1FE0A20C5
:10066000FFF7C0FF0246034B1A60F8E75000020094
:10067000D34D62109000002080B487B000AF786046
:1006800013460A46FA70BB70BB78002B04D01023C7
:10069000FB603E4B3B6103E00023FB603C4B3B6156
:1006A0007B685A6B3B691340BB6000237B61FB781E
:1006B000062B5BD801A252F823F000BFD906000038
:1006C000F70600001B070000390700006D07000057
:1006D0006D0700005D0700002E4B5B6803F4FE43CE
:1006E0007A6913437B612B4B5B6803F07F037A6964
:1006F00013437B613DE0274B5B6803F0FE431B0E19
:100700001B027A6913437B61224B5B6803F4FE038F
:100710001B0C7A6913437B612BE01E4B9B6803F42F
:10072000FE437A6913437B611A4B9B6803F07F0396
:100730007A6913437B611CE0164B9B6803F0FE4310
:100740001B0E1B027A6913437B61124B9B6803F4F7
:10075000FE031B0C7A6913437B610AE00D4BDB68D7
:1007600003F07F037A6913437B6102E000237B611E
:1007700000BFFB687A699A40BB681A437B685A637A
:100780001C37BD465DF8047B704700BFFFFF8080CB
:100790008080FFFFB081E00F80B584B000AF78604B
:1007A00039607B6802225A603B689B7878681946FA
:1007B0000022FFF761FF3B681B781A073B685B78F4
:1007C0001B051A433B681B791B0213431A463B68FF
:1007D000DB781B011343FB603B689B79002B03D044
:1007E000FB6843F08073FB603B68DB79002B03D030
:1007F000FB6843F00403FB603B685B79002B03D08C
:10080000FB6843F00203FB603B681B7A002B03D0BC
:10081000FB6843F00103FB603B689B781B04FA68AC
:100820001343FB607B68FA68DA601037BD4680BD11
:1008300080B487B000AFF860B9607A60FB6803F1FC
:100840000473DA00BB6813449B007B617B697A68A0
:100850001A601C37BD465DF8047B704780B485B0D4
:1008600000AF78607B68002B04D07B68B3F5004F45
:1008700000D800BF7B68B3FA83F3C3F11F03FB60AA
:10088000FB6818461437BD465DF8047B704700BF0F
:1008900080B400AF044BDB6C1B0EDBB21846BD46C8
:1008A0005DF8047B704700BFB081E00F80B582B077
:1008B00000AF214B5B6903F4E063B3F5007F1CD00C
:1008C000B3F5007F05D8002B25D0B3F5807F1FD06E
:1008D0002AE0B3F5C06F24D0B3F5E06F1ED0B3F5B6
:1008E000407F21D1FFF7D4FF0346122B02D9134BCF
:1008F0007B601CE0124B7B6019E0FFF7C9FF0346E9
:10090000122B02D90F4B7B6011E00F4B7B600EE086
:100910000E4B7B600BE00E4B7B6008E00D4B7B6069
:1009200005E00D4B7B6002E000237B6000BF7B682D
:1009300018460837BD4680BD00800C40804F12002D
:1009400040420F0040B56400C0CF6A00C0D8A70085
:10095000809FD500406F4001003FAB0180B582B061
:1009600000AF0D4800F0D2F90346FB70FB78072B6F
:1009700005D0082B07D100F061FC786006E0FFF796
:1009800095FF786002E000237B6000BF7B6818461B
:100990000837BD4680BD00BF06000C0080B584B09E
:1009A00000AF78600023BB607B68314A934203D07C
:1009B000304A934200D000E000BF786800F0A6F90A
:1009C0000346FB607B682A4A934203D0294A93423C
:1009D00006D00CE0284B9B6A03F00303FB6006E0A3
:1009E000254B9B6A03F00C039B08FB6000BFFB6870
:1009F000032B35D801A252F823F000BF290A0000CA
:100A00000D0A0000150A00001D0A000000F094FC09
:100A1000B86028E000F0A4FCB86024E000F0F4FB2B
:100A200003465B08BB601EE00023BB607A68104B86
:100A30009A4203D07A680F4B9A4210D10E4B9A6AB1
:100A400079680B4B994201D1102300E0142322FA5C
:100A500003F3002B03D000F079FCB86003E002E060
:100A60000023BB6000BFBB6818461037BD4680BD81
:100A70000200180003001A0000800C4080B483B00C
:100A800000AF7860094B5B6D03F00103002B00D0D1
:100A900006E000BF054B1A6D7B681340002BF9D1AF
:100AA0000C37BD465DF8047B704700BF00800C40EA
:100AB00080B586B000AF78600B46FB7000233B61C9
:100AC0007B681B0A03F00F03013B092B3ED801A2F0
:100AD00052F823F0030B0000090B0000FD0A000090
:100AE0004D0B00004D0B00000F0B0000190B000018
:100AF0004D0B00004D0B0000230B0000154B7B61DC
:100B000012E0154B7B610FE0144B7B610CE0144B42
:100B10007B6101233B6107E0124B7B6110233B614A
:100B200002E0114B7B6100BF7B681B0B03F01F03CE
:100B3000FB603B69002B02D03869FFF79FFFFB7811
:100B40007869F9681A46FFF773FE00E000BF1837AE
:100B5000BD4680BD40800C4008800C4044800C4065
:100B600058800C4060800C4078800C4090B585B077
:100B700000AF78607B6803F47813B3F5901F58D00A
:100B8000B3F5901F17D8B3F5802F2FD0B3F5802F72
:100B900005D8002B26D0B3F5003F33D0A8E0B3F53D
:100BA000602F00F0A180B3F5801F34D0B3F5402F43
:100BB00000F096809CE0B3F5D01F7FD0B3F5D01F36
:100BC00006D8B3F5A01F7ED0B3F5C01F1ED08FE0AE
:100BD000B3F5181F4ED0B3F5201F62D0B3F5101F28
:100BE00035D085E000F02AFBF86084E000F026FBB9
:100BF000F860434B9B6803F00F03FA6822FA03F393
:100C0000FB6078E000F000FBF86074E03D48FFF71F
:100C1000C5FEF8606FE03B48FFF7C0FEF860384B58
:100C20009B6E03F0F0031B09FA6822FA03F3FB60E2
:100C300061E03448FFF7B2FEF860314B9B6E03F47D
:100C400070631B0AFA6822FA03F3FB6053E02D4835
:100C5000FFF7A4FEF8602A4B9B6E03F440531C0B75
:100C60001020FFF7FBFD03462344FA6822FA03F342
:100C7000FB6040E02348FFF791FEF860204B9B6E3D
:100C800003F440531B0BFA6822FA03F3FB601C4B7E
:100C9000DB6F03F007030133FA68B2FBF3F3FB6089
:100CA00029E01848FFF77AFEF860154B9B6E03F0B9
:100CB0000303FA6822FA03F3FB601CE01248FFF713
:100CC0006DFEF86017E01048FFF768FEF8600C4B07
:100CD0001B6F03F00303FA6822FA03F3FB600AE0D8
:100CE000FFF73CFEF86006E0FFF7E0FDF86002E089
:100CF0000023FB6000BFFB6818461437BD4690BD5B
:100D000000800C400200180003001A0080B485B077
:100D100000AF78600123FB737B6803F00F03BB60B7
:100D2000BB68013B052B77D801A252F823F000BF26
:100D3000490D00007F0D0000BB0D0000190E0000E2
:100D4000190E0000F70D0000384BDB6A03F47053F6
:100D5000B3F5805F09D0B3F5005F03D0B3F5006F42
:100D600006D008E00223FB7308E00323FB7305E0D1
:100D70000423FB7302E00523FB7300BF4FE02B4B02
:100D80009B6A03F00303022B06D0032B07D0012B31
:100D900008D10323FB730FE00223FB730CE006234F
:100DA000FB7309E0214B9B6A03F48033002B02D0D4
:100DB0000923FB7300E000BF31E01C4B9B6A03F08A
:100DC0000C03082B06D00C2B07D0042B08D10323CF
:100DD000FB730FE00223FB730CE00623FB7309E0B7
:100DE000124B9B6A03F48013002B02D00923FB7380
:100DF00000E000BF13E00D4B1B6803F08053002B95
:100E000003D0B3F1805F03D009E00723FB7302E056
:100E10000823FB7300BF02E00023FB7300BFFB7BD2
:100E200018461437BD465DF8047B704700800C40BF
:100E300080B58AB000AF334B03F580531B68BB61AC
:100E4000304B03F580530C331B68BA691340BB6108
:100E50002C4B9B6B7B61BA697B6913403B6200231F
:100E6000FB6149E000237B623BE03B6A03F0010346
:100E7000002B30D0234B9B683B6101227B6A02FA36
:100E800003F3FB601F4B03F580530833FA681A60C5
:100E90007B6A1B013A691344DB68BB60BB68002BAB
:100EA00019D0BB681B7A7B60BB681B7A83F0010397
:100EB000DAB2BB681A72BB681B68002B0BD0BB6828
:100EC0001B68786A7A68002A0CBF00220122D1B21E
:100ED000BA68526898473B6A5B083B627B6A013399
:100EE0007B623B6A002BC0D17B69DA43BB6913404C
:100EF0003B62FB690133FB61FB69012BB2DD2837E3
:100F0000BD4680BD00200C4080B483B000AF0346D6
:100F10003960FB71FB79002B0DD0FB79012B0AD0D6
:100F2000FB79022B07D0FB79032B04D0FB79042B30
:100F300001D0FB79052B0948FA793B68012101FAB8
:100F400003F319461346DB0013449B00034410339C
:100F500059600C37BD465DF8047B70470060004067
:100F600080B483B000AF03463960FB71FB79002B7E
:100F70000DD0FB79012B0AD0FB79022B07D0FB792E
:100F8000032B04D0FB79042B01D0FB79052B0948F6
:100F9000FA793B68012101FA03F319461346DB0095
:100FA00013449B000344103319600C37BD465DF8B1
:100FB000047B70470060004090B585B000AFB96019
:100FC0007B600346FB731346BB73FB7B002B0DD08A
:100FD000FB7B012B0AD0FB7B022B07D0FB7B032B77
:100FE00004D0FB7B042B01D0FB7B052BBB7B002BB0
:100FF0000DD07B68002B05D0FB7B1846B968FFF746
:10100000AFFF04E0FB7B1846B968FFF77DFFBB68C4
:10101000072B1DD82B48FA7B2A4CF97B0B46DB00AB
:101020000B449B0023445968BB689B000F2404FABF
:1010300003F3DB431940BC7BBB689B0004FA03F35A
:1010400019431346DB0013449B000344596024E01A
:101050001C48FA7B1B4CF97B0B46DB000B449B00C6
:10106000234408331968BB6803F18043083B9B00A5
:101070000F2404FA03F3DB431940BC7BBB6803F184
:101080008043083B9B0004FA03F319431346DB003B
:1010900013449B00034408331960BB7B002B0DD124
:1010A0007B68002B05D0FB7B1846B968FFF758FF1B
:1010B00004E0FB7B1846B968FFF726FF1437BD46EE
:1010C00090BD00BF0060004080B483B000AF786086
:1010D00039607A68374B9A4203D07A68364B9A4225
:1010E00000D100BF3B681B7883F00103DBB2002B0B
:1010F00002D07B6802225A607B6800225A623B68F9
:101100009B781A063B68DB781B041A433B689B7983
:101110009B021A433B68DB791B021A433B681B7A2C
:101120001A433B685B78002B01D0402300E000238A
:101130001A433B685B7A002B01D0802300E0002338
:101140001A433B689B7A002B01D0202300E0002348
:101150001A433B68DB7A002B01D0102300E0002308
:101160001A433B681B79002B02D04FF4005300E078
:1011700000231A433B685B79002B02D04FF0805369
:1011800000E000231A433B681B7B002B01D008239F
:1011900000E000231A437B681A603B681B78002B31
:1011A00002D07B6801225A600C37BD465DF8047B93
:1011B000704700BF0000014000040140064880471E
:1011C0000649074A074B9A42BEBF51F8040B42F842
:1011D000040BF8E7FEF78CFF2D1300003814000015
:1011E0000000002074000020FEE700BF80B400AFC4
:1011F000044BDB6C1B0EDBB21846BD465DF8047B6E
:10120000704700BFB081E00F80B582B000AF00F042
:1012100015F87860074B5B6803F00F037A6822FAD1
:1012200003F37B60044B7A681A607B6818460837C2
:10123000BD4680BD00800C40A000002080B582B07B
:1012400000AF2F4BDB6A03F47053B3F5805F0AD015
:10125000B3F5005F03D0B3F5006F08D00BE0294B66
:101260001B687B6047E04FF400437B6043E0264B04
:101270001B687B603FE0224BDB6803F4E063B3F55F
:10128000007F1BD0B3F5007F05D8002B24D0B3F529
:10129000807F16D02BE0B3F5806F09D0B3F5A06F37
:1012A00003D0B3F5407F06D021E0184B7B6021E0EE
:1012B000174B7B601EE0174B7B601BE0164B7B607F
:1012C00018E0FFF793FF0346122B02D9134B7B6004
:1012D00010E0134B7B600DE0FFF788FF0346122BF5
:1012E00002D9104B7B6005E00F4B7B6002E00023CE
:1012F0007B6000BF00BF7B6818460837BD4680BDD5
:1013000000800C400400002000000020003FAB01E2
:10131000406F4001809FD500C0D8A70040B5640051
:10132000C0CF6A00804F120040420F0080B400AF6F
:10133000BD465DF8047B704780B400AF4FF40043B6
:101340001846BD465DF8047B704700BF80B400AF0F
:101350004FF47A731846BD465DF8047B704700BFB2
:1013600080B400AF034B1B681846BD465DF8047B94
:10137000704700BF0400002008B5074B044613B1B6
:101380000021AFF30080054B1868836A03B19847CA
:10139000204600F033F800BF0000000028140000D1
:1013A00070B50E4B0E4D0024ED1AAD101E46AC422A
:1013B00004D056F8242090470134F8E700F020F8D4
:1013C000084D094B0024ED1AAD101E46AC4204D066
:1013D00056F8242090470134F8E770BD68000020DB
:1013E000680000206C0000206800002002440346D2
:1013F000934202D003F8011BFAE77047FEE700BFF3
:10140000F8B500BFF8BC08BC9E467047F8B500BFF1
:10141000F8BC08BC9E4670470000020007000000B0
:101420000000000043000000080000200000000051
:08143000C0ECFF7F0100000089
:101438000048E801008000000000000000000000F3
:101448000000000000000000000000000000000094
:10145800000000000000000024140000000000004C
:101468000000000000000000000000000000000074
:101478000000000000000000000000000000000064
:101488000000000000000000000000000000000054
:101498000000000000000000C10000009D000000E6
:0414A8000000000040
:04000003000011BD2B
:00000001FF
